:020000040800F2
:1000000010040020A90100081F0B0008AF0A000817
:100010001D0B000891020008350C000800000000CC
:10002000000000000000000000000000430B00087A
:100030009302000800000000410B0008450B000877
:10004000C3010008C3010008C3010008C301000880
:10005000C3010008C3010008C3010008C301000870
:10006000C3010008C3010008C3010008C301000860
:10007000C3010008C3010008C3010008C301000850
:10008000C3010008C3010008C3010008000000000C
:10009000000000000000000000000000C301000894
:1000A000C3010008C3010008C3010008C301000820
:1000B000C3010008C3010008C3010008C301000810
:1000C000C3010008C3010008C3010008C301000800
:1000D000C3010008C3010008C301000800000000BC
:1000E000C3010008C3010008C301000800000000AC
:1000F000000000000000000000000000C301000834
:1001000000000000C3010008C3010008C30100088B
:1001100000000000000000000000000000000000DF
:10012000C3010008C3010008C3010008C30100089F
:10013000C3010008000000000000000000000000F3
:10014000000000000000000000000000C3010008E3
:10015000C3010008C3010008C3010008C30100086F
:10016000C3010008C30100080000000000000000F7
:10017000000000000000000000000000000000007F
:1001800000000000C30100080000000000000000A3
:10019000C3010008DFF80CD000F068F80048004701
:1001A000550C000810040020064880470648004708
:1001B000FEE7FEE7FEE7FEE7FEE7FEE7FEE7FEE717
:1001C000FEE7FEE7E10B0008950100082DE9F05F6E
:1001D0000546002092469B468846064681464024B6
:1001E0001BE0284641464746224600F02FF853467A
:1001F0005A46C01A914110D311461846224600F0C3
:1002000016F82D1A67EB01084F46224601200021FF
:1002100000F00DF817EB00094E41201EA4F1010477
:10022000DFDC484631462A464346BDE8F09F202A97
:1002300004DB203A00FA02F1002070479140C2F13D
:10024000200320FA03F3194390407047202A04DB6F
:10025000203A21FA02F00021704721FA02F3D0403F
:10026000C2F120029140084319467047064C074DE1
:1002700006E0E06840F0010394E807009847103476
:10028000AC42F6D3FFF78AFF9C0C0008BC0C0008B8
:10029000FEE770472DE9F84FDFF860B100224FF01C
:1002A00001084FF0030A4FF00F090BF1040E00BFD5
:1002B0000B6808FA02F42340A3426ED14D68022D68
:1002C00001D0122D0ED1D50800EB850CDCF82050A2
:1002D0005607F70E09FA07F6B5430E69BE402E43DE
:1002E000CCF82060066855000F790AFA05FC07F083
:1002F000030726EA0C06AF40374307604E68012E1D
:1003000005D0022E03D0112E01D0122E0ED18668F8
:10031000CF6826EA0C06AF40374387604668A6439D
:100320000C79C4F30014944034434460C6688C686C
:1003300026EA0C06AC403443C4604C68E40056D551
:100340002F4C256845F480452560246822F003057C
:1003500004F4804400942B4C2E19D6F808489507D5
:100360002F0F09FA07F5AC43274DA84201D100250C
:1003700015E0264DA84201D1012510E0244DA842E8
:1003800001D102250BE0234DA84201D1032506E04F
:10039000214DA84202D1042501E028E00725BD40F7
:1003A0002543C6F80858DBF800405D464E689C437C
:1003B000F60300D51C432C60DEF8004075464E68FD
:1003C0009C43B60300D51C432C600C4D08352C68AB
:1003D0004E689C43F60200D51C432C60074D0C353B
:1003E0002C684E689C43B60200D51C432C60521CFE
:1003F000102AFFF45DAFBDE8F88F0000003C01401B
:100400004438024000300140000002400004024035
:1004100000080240000C0240001002400069084041
:1004200000D0012070470AB1816170470904FBE7E1
:100430000148806870470000000000200248816881
:100440000278114481607047000000200B4810B50D
:10045000016841F400710160016841F4806101604C
:10046000016841F480710160032000F08BF80020E6
:1004700000F006F800F024F8002010BD003C024017
:1004800070B50D4D04464FF47A712878B1FBF0F049
:100490000A490968B1FBF0F000F0F1FA48B9102CF4
:1004A00007D200222146501E00F04CF800206C605C
:1004B00070BD012070BD0000000000200C00002075
:1004C0001F4808B5016841F480410160006800F4EC
:1004D000804000901A48001F016841F0805101607F
:1004E000006800F080500090032000F04BF80022DC
:1004F00011466FF00B0000F025F8002211466FF056
:100500000A0000F01FF8002211466FF0090000F009
:1005100019F800221146501F00F014F8002211466D
:10052000101F00F00FF800221146901E00F00AF88C
:100530000022BDE808401146501E00F003B800003C
:1005400044380240F0B40E4B1B680C46C3F3022340
:10055000C3F10705042D00D90425191D072901D26F
:10056000002300E0DB1E012606FA05F1491E2140AA
:1005700099409E40761E16403143F0BC00F0D0BA40
:100580000CED00E0064900F0070208684FF6FF0393
:10059000184040EA0220034A1043086070470000F8
:1005A0000CED00E00000FA052DE9F0470E460500CD
:1005B00065D0DFF81481D8F80000F7B200F00F0022
:1005C000B04207D288F80070D8F8000000F00F00A1
:1005D000B04254D128683D4C810712D5400703D55D
:1005E000206840F4E05020602878000703D5206898
:1005F00040F4604020602068A96820F0F0000843C3
:1006000020602878C0072DD0304968680839012853
:1006100012D0022813D0032811D0096889070029B5
:100620002DDA216821F0030101432160FFF700FF6B
:10063000814641F2883A0EE009688903EFE70968CC
:100640008901ECE7FFF7F4FEA0EB0901514502D95F
:100650000320BDE8F0872068696800F00C00B0EB6B
:10066000810FEFD1D8F80010404601F00F01B142E0
:1006700007D90770006800F00F00B04201D00120D8
:10068000E7E72878400705D52068E96820F4E050BE
:10069000084320602878000706D52068296920F4DF
:1006A000604040EAC100206000F01CF82168084A60
:1006B000C1F30311515CC840064908600020FFF7F0
:1006C000DFFE0020C5E70000003C02400838024081
:1006D0008C0C00080C0000200148006870470000E6
:1006E0000C000020154810B5006810F00C021448EA
:1006F00013D01449042A0FD0082A0ED10F4C241FFE
:100700002268236802F03F025B0207D52068C0F32D
:100710008810A0FB010106E0084610BD2168C1F366
:100720008811A1FB00010023FFF750FD2168C1F3F0
:100730000141491C4900B0FBF1F010BD08380240EE
:100740000024F40040787D012DE9F84F050076D0B3
:100750002878DFF8F8B2BE4CC00749D0DBF80010AB
:100760005846C1F38101012908D00068C0F3810017
:1007700002280AD1201D0068400206D520688003A7
:1007800036D568680028E2D032E06868B0F5803F6E
:1007900010D0B0F5A02F206810D020F48030206059
:1007A000206820F4802020606868A0B1FFF740FE38
:1007B00006460CE0206840F48030F4E740F48020E6
:1007C0002060F7E7FFF734FE801B642873D82068A9
:1007D0008003F7D50CE0FFF72BFE064605E000BFCF
:1007E000FFF726FE801B6428F0D820688003F7D42A
:1007F0002878DFF8608280074FF000093ED5DBF8EB
:100800000010584611F00C0F09D00068C0F38100A9
:1008100002280BD18D48001F0068400206D42068D2
:10082000800715D5E868012809D111E0E868B8B15A
:100830000120C8F80000FFF7FBFD064605E002E1D5
:10084000FFF7F6FD801B0228C0D820688007F7D587
:100850002068296920F0F80040EAC10020600DE01E
:10086000C8F80090FFF7E4FD064604E0FFF7E0FD5E
:10087000801B02281FD820688007F7D4287800073B
:1008800022D5724E744869696C3671B101210160DC
:10089000FFF7CEFD074604E0FFF7CAFDC01B0228A4
:1008A00009D830688007F7D50EE0C0F80090FFF750
:1008B000BFFD074605E083E0FFF7BAFDC01B022835
:1008C0007ED830688007F7D42878400768D5DFF8ED
:1008D0007CA100270AF1380ADAF80000C0000BD426
:1008E000DAF8001041F08051CAF80010DAF8000080
:1008F000012700F080500090584E3068C00510D499
:10090000306840F480703060FFF792FD009005E0A1
:10091000FFF78EFD0099401A022851D83068C005B3
:10092000F6D54A4EA868683601280FD005283068E9
:1009300010D020F001003060306820F004003060FA
:10094000A868B8B1FFF774FD00900FE0306840F080
:100950000100F4E740F004003060F7E7FFF768FDBE
:100960000099411A41F28830814264D8306880078A
:10097000F4D50EE0FFF75CFD009007E0FFF758FDAF
:100980000099411A41F28830814254D8306880077A
:10099000F4D42FB1DAF8001021F08051CAF8001019
:1009A000A869C0B3DBF80010C1F3810102294AD065
:1009B0000228484607D0C8F86000FFF739FD00E07C
:1009C00039E005463AE04746C8F86000FFF730FDD9
:1009D000064604E0FFF72CFD801B02282BD8206878
:1009E0008001F7D4D5E907010843A96A1C4A4908E0
:1009F00002EB01416A6A41EA8211084395F82C1022
:100A000040EA01611148001F016001203866FFF7CC
:100A10000FFD054605E014E0FFF70AFD401B022824
:100A200009D820688001F7D50BE000BFFFF700FD73
:100A3000401B022802D90320BDE8F88F20688001FE
:100A4000F4D40020F8E70120F6E70000083802405F
:100A50000038024000004742800E474200700040CC
:100A60000000FFFF4FF0E0210428086903D020F0C8
:100A700004000861704740F00400FAE7704710B5C1
:100A8000401EB0F1807F01D3012010BD4FF0E02463
:100A900060610F21601700F043F80020A06107207B
:100AA0002061002010BD10B5FFF7E8FF10BDFEE784
:100AB00030B5174887B00024016841F00401016097
:100AC000016801F004010591016841F00101016034
:100AD0000068104D00F001000590224620212846B4
:100AE000FFF7A1FC4FF40050CDE9000469460A4825
:100AF0000294FFF7CFFB202000900120CDE90104F4
:100B0000694628460394FFF7C5FB07B030BD0000D7
:100B1000303802400000024000080240FEE7704703
:100B20000907090E002806DA00F00F0000F1E020A6
:100B300080F8141D704700F1E02080F80014704721
:100B40007047704710B5FFF779FCBDE81040FFF71C
:100B5000AABF000010B5204892B00024016841F0FF
:100B600080510160006800F0805011901B480168BE
:100B700021F4404141F4004101600068069400F412
:100B8000404011900220009001200390102004901A
:100B90006846FFF7D9FD00B1FEE70F20CDE90C0450
:100BA0000E940F9400210CA81094FFF7FDFC00B1E7
:100BB000FEE7FFF791FD4FF47A71B0FBF1F0FFF71C
:100BC0005EFF0420FFF74EFF00221146501EFFF784
:100BD000B9FC12B010BD0000403802400070004067
:100BE0001048016841F4700101600F48016841F04C
:100BF000010101600C4A00210832116002680B4BB0
:100C00001A400260031D0A4A1A60026822F4802218
:100C1000026005480C3001600249580680390860BE
:100C20007047000088ED00E000380240FFFFF6FE4C
:100C300010300024FEE702E008C8121F08C1002A95
:100C4000FAD170477047002001E001C1121F002A4D
:100C5000FBD17047FFF7FAFBFFF77CFFFFF728FF98
:100C6000084D094E4FF4005421462846FFF7D6FBA5
:100C7000012805D0002220213046FFF7D4FBF3E7FE
:100C80000122F8E7000802400000024000000000D6
:100C9000000000000102030406070809BC0C00085C
:100CA0000000002010000000360C0008CC0C0008EA
:100CB0001000002000040000460C000801000000A5
:0C0CC00010000000000000000024F40000
:040000050800019559
:00000001FF
